{
  "contractName": "Lunchbox",
  "abi": [
    {
      "constant": true,
      "inputs": [],
      "name": "maxEntities",
      "outputs": [
        {
          "name": "",
          "type": "uint256"
        }
      ],
      "payable": false,
      "stateMutability": "view",
      "type": "function"
    },
    {
      "constant": true,
      "inputs": [],
      "name": "minPayment",
      "outputs": [
        {
          "name": "",
          "type": "uint256"
        }
      ],
      "payable": false,
      "stateMutability": "view",
      "type": "function"
    },
    {
      "constant": true,
      "inputs": [],
      "name": "totalPayout",
      "outputs": [
        {
          "name": "",
          "type": "uint256"
        }
      ],
      "payable": false,
      "stateMutability": "view",
      "type": "function"
    },
    {
      "constant": true,
      "inputs": [
        {
          "name": "",
          "type": "uint256"
        }
      ],
      "name": "entitiesAddrs",
      "outputs": [
        {
          "name": "",
          "type": "address"
        }
      ],
      "payable": false,
      "stateMutability": "view",
      "type": "function"
    },
    {
      "constant": true,
      "inputs": [],
      "name": "numDecisions",
      "outputs": [
        {
          "name": "",
          "type": "uint256"
        }
      ],
      "payable": false,
      "stateMutability": "view",
      "type": "function"
    },
    {
      "inputs": [],
      "payable": true,
      "stateMutability": "payable",
      "type": "constructor"
    },
    {
      "payable": true,
      "stateMutability": "payable",
      "type": "fallback"
    },
    {
      "constant": false,
      "inputs": [],
      "name": "kill",
      "outputs": [],
      "payable": false,
      "stateMutability": "nonpayable",
      "type": "function"
    },
    {
      "constant": false,
      "inputs": [],
      "name": "cleanContract",
      "outputs": [],
      "payable": true,
      "stateMutability": "payable",
      "type": "function"
    },
    {
      "constant": false,
      "inputs": [
        {
          "name": "entity",
          "type": "address"
        }
      ],
      "name": "hasJuryDuty",
      "outputs": [
        {
          "name": "",
          "type": "bool"
        }
      ],
      "payable": false,
      "stateMutability": "nonpayable",
      "type": "function"
    },
    {
      "constant": false,
      "inputs": [
        {
          "name": "isGuilty",
          "type": "bool"
        }
      ],
      "name": "carryOutVerdict",
      "outputs": [],
      "payable": false,
      "stateMutability": "nonpayable",
      "type": "function"
    },
    {
      "constant": false,
      "inputs": [
        {
          "name": "isGuilty",
          "type": "bool"
        }
      ],
      "name": "makeDecision",
      "outputs": [],
      "payable": true,
      "stateMutability": "payable",
      "type": "function"
    }
  ],
  "bytecode": "0x606060405260008060146101000a81548160ff02191690831515021790555067016345785d8a000060015560038055336000806101000a81548173ffffffffffffffffffffffffffffffffffffffff021916908373ffffffffffffffffffffffffffffffffffffffff1602179055506000341161007d576000610080565b60015b600060146101000a81548160ff0219169083151502179055506108ad806100a86000396000f3006060604052600436106100a4576000357c0100000000000000000000000000000000000000000000000000000000900463ffffffff1680630e7ce7ab146100a65780632e276499146100cf57806341c0e1b5146100f85780634267355d1461010d578063454f7b8f146101325780635f11910c1461015b5780637017d0f2146101ac5780637be842dd1461020f578063dfa1ba3514610219578063e390d21f14610233575b005b34156100b157600080fd5b6100b961025c565b6040518082815260200191505060405180910390f35b34156100da57600080fd5b6100e2610262565b6040518082815260200191505060405180910390f35b341561010357600080fd5b61010b610268565b005b341561011857600080fd5b610130600480803515159060200190919050506102f9565b005b341561013d57600080fd5b610145610547565b6040518082815260200191505060405180910390f35b341561016657600080fd5b610192600480803573ffffffffffffffffffffffffffffffffffffffff1690602001909190505061054d565b604051808215151515815260200191505060405180910390f35b34156101b757600080fd5b6101cd60048080359060200190919050506105f1565b604051808273ffffffffffffffffffffffffffffffffffffffff1673ffffffffffffffffffffffffffffffffffffffff16815260200191505060405180910390f35b610217610630565b005b61023160048080351515906020019091905050610652565b005b341561023e57600080fd5b6102466107bf565b6040518082815260200191505060405180910390f35b60035481565b60015481565b6000809054906101000a900473ffffffffffffffffffffffffffffffffffffffff1673ffffffffffffffffffffffffffffffffffffffff163373ffffffffffffffffffffffffffffffffffffffff1614156102f7576000809054906101000a900473ffffffffffffffffffffffffffffffffffffffff1673ffffffffffffffffffffffffffffffffffffffff16ff5b565b6103016107c5565b6000806000806000809450600093505b6005805490508410156104705760058481548110151561032d57fe5b906000526020600020900160009054906101000a900473ffffffffffffffffffffffffffffffffffffffff169250861515600660008573ffffffffffffffffffffffffffffffffffffffff1673ffffffffffffffffffffffffffffffffffffffff16815260200190815260200160002060010160009054906101000a900460ff1615151415610405578286866064811015156103c557fe5b602002019073ffffffffffffffffffffffffffffffffffffffff16908173ffffffffffffffffffffffffffffffffffffffff168152505084806001019550505b600660008473ffffffffffffffffffffffffffffffffffffffff1673ffffffffffffffffffffffffffffffffffffffff1681526020019081526020016000206000808201600090556001820160006101000a81549060ff021916905550508380600101945050610311565b606460025481151561047e57fe5b049150600090505b8481101561053657600073ffffffffffffffffffffffffffffffffffffffff1686826064811015156104b457fe5b602002015173ffffffffffffffffffffffffffffffffffffffff161415156105295785816064811015156104e457fe5b602002015173ffffffffffffffffffffffffffffffffffffffff166108fc839081150290604051600060405180830381858888f19350505050151561052857600080fd5b5b8080600101915050610486565b61053e610630565b50505050505050565b60025481565b600080600090505b6005805490508110156105e6578273ffffffffffffffffffffffffffffffffffffffff1660058281548110151561058857fe5b906000526020600020900160009054906101000a900473ffffffffffffffffffffffffffffffffffffffff1673ffffffffffffffffffffffffffffffffffffffff1614156105d957600091506105eb565b8080600101915050610555565b600191505b50919050565b60058181548110151561060057fe5b90600052602060002090016000915054906101000a900473ffffffffffffffffffffffffffffffffffffffff1681565b60006002819055506000600481905550600060058161064f9190610804565b50565b61065b3361054d565b151561066357fe5b600154341015151561067157fe5b34600660003373ffffffffffffffffffffffffffffffffffffffff1673ffffffffffffffffffffffffffffffffffffffff1681526020019081526020016000206000018190555080600660003373ffffffffffffffffffffffffffffffffffffffff1673ffffffffffffffffffffffffffffffffffffffff16815260200190815260200160002060010160006101000a81548160ff0219169083151502179055506001600460008282540192505081905550600580548060010182816107379190610830565b9160005260206000209001600033909190916101000a81548173ffffffffffffffffffffffffffffffffffffffff021916908373ffffffffffffffffffffffffffffffffffffffff16021790555050346002600082825401925050819055506003546004541015156107bc576107bb600060149054906101000a900460ff166102f9565b5b50565b60045481565b610c80604051908101604052806064905b600073ffffffffffffffffffffffffffffffffffffffff168152602001906001900390816107d65790505090565b81548183558181151161082b5781836000526020600020918201910161082a919061085c565b5b505050565b81548183558181151161085757818360005260206000209182019101610856919061085c565b5b505050565b61087e91905b8082111561087a576000816000905550600101610862565b5090565b905600a165627a7a723058206683c50d80ae3d7b8c47f50eed8f88e9321cf439beb692e89048922b498291d90029",
  "source": "pragma solidity ^0.4.19;\n\n// TODO: JZ make use of oraclize\n// import \"./usingOraclize.sol\";\n// import \"github.com/oraclize/ethereum-api/oraclizeAPI.sol\";\n\ncontract Lunchbox {\n  address judge;\n  bool private truth = false; // Guilty or not\n  uint public minPayment = 100 finney;\n  uint public totalPayout;\n  uint public maxEntities = 3;\n  uint public numDecisions;\n\n  struct Entity {\n    uint amountPaid;\n    bool verdict;\n  }\n\n  address[] public entitiesAddrs;\n  mapping(address => Entity) entities;     \n\n  function kill() public {\n    if (msg.sender == judge) {\n      selfdestruct(judge);\n    }\n  }\n\n  function Lunchbox() payable public {\n     judge = msg.sender;\n     truth = msg.value > 0 ? true : false;\n  }\n\n  function cleanContract() payable public {\n    totalPayout = 0;\n    numDecisions = 0;    \n    entitiesAddrs.length = 0;\n  }\n\n  function hasJuryDuty(address entity) public returns(bool) {\n    for(uint i = 0; i < entitiesAddrs.length; i++) { \n      if (entitiesAddrs[i] == entity) return false;\n    }\n    return true;\n  }  \n\n  function carryOutVerdict(bool isGuilty) public {\n    address[100] memory correctVerdicts;\n    uint correctVerdictsCount = 0;\n\n    for(uint i = 0; i < entitiesAddrs.length; i++) {\n      address entityAddr = entitiesAddrs[i];\n      if (entities[entityAddr].verdict == isGuilty) {\n        correctVerdicts[correctVerdictsCount] = entityAddr;\n        correctVerdictsCount++;\n      }\n      delete entities[entityAddr];\n    }\n\n    uint payoutAmount = totalPayout / correctVerdicts.length;\n    for(uint j = 0; j < correctVerdictsCount; j++) {\n      if (correctVerdicts[j] != address(0)) {\n        correctVerdicts[j].transfer(payoutAmount);\n      }\n    }\n    cleanContract();\n  }   \n\n  function makeDecision(bool isGuilty) public payable {\n     assert(hasJuryDuty(msg.sender));\n     assert(msg.value >= minPayment);\n\n     entities[msg.sender].amountPaid = msg.value;\n     entities[msg.sender].verdict = isGuilty;\n     numDecisions += 1;\n     entitiesAddrs.push(msg.sender);\n     totalPayout += msg.value;\n\n     if (numDecisions >= maxEntities) carryOutVerdict(truth); // Fake random true or false\n  }      \n\n  // Fallback function in case someone sends ether to the contract so it doesn't get lost\n  function() payable public {\n\n  }   \n}\n\n",
  "sourcePath": "/Users/machine/workspace/lunchbox/contracts/Lunchbox.sol",
  "compiler": {
    "name": "solc",
    "version": "0.4.19+commit.c4cbbb05.Emscripten.clang"
  },
  "schemaVersion": "1.0.1",
  "updatedAt": "2018-02-26T07:56:10.875Z"
}