{
  "contractName": "MockTrial",
  "abi": [
    {
      "constant": true,
      "inputs": [],
      "name": "maxEntities",
      "outputs": [
        {
          "name": "",
          "type": "uint256"
        }
      ],
      "payable": false,
      "stateMutability": "view",
      "type": "function"
    },
    {
      "constant": true,
      "inputs": [],
      "name": "minPayment",
      "outputs": [
        {
          "name": "",
          "type": "uint256"
        }
      ],
      "payable": false,
      "stateMutability": "view",
      "type": "function"
    },
    {
      "constant": true,
      "inputs": [],
      "name": "totalPayout",
      "outputs": [
        {
          "name": "",
          "type": "uint256"
        }
      ],
      "payable": false,
      "stateMutability": "view",
      "type": "function"
    },
    {
      "constant": true,
      "inputs": [
        {
          "name": "",
          "type": "uint256"
        }
      ],
      "name": "entitiesAddrs",
      "outputs": [
        {
          "name": "",
          "type": "address"
        }
      ],
      "payable": false,
      "stateMutability": "view",
      "type": "function"
    },
    {
      "constant": true,
      "inputs": [],
      "name": "numDecisions",
      "outputs": [
        {
          "name": "",
          "type": "uint256"
        }
      ],
      "payable": false,
      "stateMutability": "view",
      "type": "function"
    },
    {
      "inputs": [],
      "payable": true,
      "stateMutability": "payable",
      "type": "constructor"
    },
    {
      "payable": true,
      "stateMutability": "payable",
      "type": "fallback"
    },
    {
      "constant": false,
      "inputs": [],
      "name": "kill",
      "outputs": [],
      "payable": false,
      "stateMutability": "nonpayable",
      "type": "function"
    },
    {
      "constant": false,
      "inputs": [],
      "name": "cleanContract",
      "outputs": [],
      "payable": true,
      "stateMutability": "payable",
      "type": "function"
    },
    {
      "constant": true,
      "inputs": [
        {
          "name": "entity",
          "type": "address"
        }
      ],
      "name": "hasJuryDuty",
      "outputs": [
        {
          "name": "",
          "type": "bool"
        }
      ],
      "payable": false,
      "stateMutability": "view",
      "type": "function"
    },
    {
      "constant": false,
      "inputs": [
        {
          "name": "isGuilty",
          "type": "bool"
        }
      ],
      "name": "carryOutVerdict",
      "outputs": [],
      "payable": false,
      "stateMutability": "nonpayable",
      "type": "function"
    },
    {
      "constant": false,
      "inputs": [
        {
          "name": "isGuilty",
          "type": "bool"
        }
      ],
      "name": "makeDecision",
      "outputs": [],
      "payable": true,
      "stateMutability": "payable",
      "type": "function"
    }
  ],
  "bytecode": "0x606060405260008060146101000a81548160ff02191690831515021790555067016345785d8a000060015560038055336000806101000a81548173ffffffffffffffffffffffffffffffffffffffff021916908373ffffffffffffffffffffffffffffffffffffffff1602179055506000341161007d576000610080565b60015b600060146101000a81548160ff021916908315150217905550610907806100a86000396000f3006060604052600436106100a4576000357c0100000000000000000000000000000000000000000000000000000000900463ffffffff1680630e7ce7ab146100a65780632e276499146100cf57806341c0e1b5146100f85780634267355d1461010d578063454f7b8f146101325780635f11910c1461015b5780637017d0f2146101ac5780637be842dd1461020f578063dfa1ba3514610219578063e390d21f14610233575b005b34156100b157600080fd5b6100b961025c565b6040518082815260200191505060405180910390f35b34156100da57600080fd5b6100e2610262565b6040518082815260200191505060405180910390f35b341561010357600080fd5b61010b610268565b005b341561011857600080fd5b610130600480803515159060200190919050506102f9565b005b341561013d57600080fd5b6101456105a6565b6040518082815260200191505060405180910390f35b341561016657600080fd5b610192600480803573ffffffffffffffffffffffffffffffffffffffff169060200190919050506105ac565b604051808215151515815260200191505060405180910390f35b34156101b757600080fd5b6101cd6004808035906020019091905050610650565b604051808273ffffffffffffffffffffffffffffffffffffffff1673ffffffffffffffffffffffffffffffffffffffff16815260200191505060405180910390f35b61021761068f565b005b610231600480803515159060200190919050506106eb565b005b341561023e57600080fd5b610246610858565b6040518082815260200191505060405180910390f35b60035481565b60015481565b6000809054906101000a900473ffffffffffffffffffffffffffffffffffffffff1673ffffffffffffffffffffffffffffffffffffffff163373ffffffffffffffffffffffffffffffffffffffff1614156102f7576000809054906101000a900473ffffffffffffffffffffffffffffffffffffffff1673ffffffffffffffffffffffffffffffffffffffff16ff5b565b600080600080600093505b6006805490508410156104785760068481548110151561032057fe5b906000526020600020900160009054906101000a900473ffffffffffffffffffffffffffffffffffffffff169250841515600760008573ffffffffffffffffffffffffffffffffffffffff1673ffffffffffffffffffffffffffffffffffffffff16815260200190815260200160002060010160009054906101000a900460ff161515141561040d57600580548060010182816103bd919061085e565b9160005260206000209001600085909190916101000a81548173ffffffffffffffffffffffffffffffffffffffff021916908373ffffffffffffffffffffffffffffffffffffffff160217905550505b600760008473ffffffffffffffffffffffffffffffffffffffff1673ffffffffffffffffffffffffffffffffffffffff1681526020019081526020016000206000808201600090556001820160006101000a81549060ff021916905550508380600101945050610304565b60058054905060025481151561048a57fe5b049150600090505b60058054905081101561059757600073ffffffffffffffffffffffffffffffffffffffff166005828154811015156104c657fe5b906000526020600020900160009054906101000a900473ffffffffffffffffffffffffffffffffffffffff1673ffffffffffffffffffffffffffffffffffffffff1614151561058a5760058181548110151561051e57fe5b906000526020600020900160009054906101000a900473ffffffffffffffffffffffffffffffffffffffff1673ffffffffffffffffffffffffffffffffffffffff166108fc839081150290604051600060405180830381858888f19350505050151561058957600080fd5b5b8080600101915050610492565b61059f61068f565b5050505050565b60025481565b600080600090505b600680549050811015610645578273ffffffffffffffffffffffffffffffffffffffff166006828154811015156105e757fe5b906000526020600020900160009054906101000a900473ffffffffffffffffffffffffffffffffffffffff1673ffffffffffffffffffffffffffffffffffffffff161415610638576000915061064a565b80806001019150506105b4565b600191505b50919050565b60068181548110151561065f57fe5b90600052602060002090016000915054906101000a900473ffffffffffffffffffffffffffffffffffffffff1681565b600060149054906101000a900460ff1615600060146101000a81548160ff0219169083151502179055506000600281905550600060048190555060006006816106d8919061088a565b5060006005816106e8919061088a565b50565b6106f4336105ac565b15156106fc57fe5b600154341015151561070a57fe5b34600760003373ffffffffffffffffffffffffffffffffffffffff1673ffffffffffffffffffffffffffffffffffffffff1681526020019081526020016000206000018190555080600760003373ffffffffffffffffffffffffffffffffffffffff1673ffffffffffffffffffffffffffffffffffffffff16815260200190815260200160002060010160006101000a81548160ff0219169083151502179055506001600460008282540192505081905550600680548060010182816107d0919061085e565b9160005260206000209001600033909190916101000a81548173ffffffffffffffffffffffffffffffffffffffff021916908373ffffffffffffffffffffffffffffffffffffffff160217905550503460026000828254019250508190555060035460045410151561085557610854600060149054906101000a900460ff166102f9565b5b50565b60045481565b8154818355818115116108855781836000526020600020918201910161088491906108b6565b5b505050565b8154818355818115116108b1578183600052602060002091820191016108b091906108b6565b5b505050565b6108d891905b808211156108d45760008160009055506001016108bc565b5090565b905600a165627a7a7230582000dc9700ad22a4895eccc65ea1416648727c23f913ad8e4abc07a8ce70d4609c0029",
  "source": "pragma solidity ^0.4.19;\n\ncontract MockTrial {\n  address judge;\n  bool private truth = false; // Guilty or not\n  uint public minPayment = 100 finney;\n  uint public totalPayout;\n  uint public maxEntities = 3;\n  uint public numDecisions;\n\n  // Represents a person in the jury\n  struct Entity {\n    uint amountPaid;\n    bool verdict;\n  }\n\n  // Addresses to be paid out to after verdict is reached\n  address[] private payoutAddrs;\n\n  // Addresses of every person part of the jury\n  address[] public entitiesAddrs;\n  mapping(address => Entity) entities;     \n\n  function kill() public {\n    if (msg.sender == judge) {\n      selfdestruct(judge);\n    }\n  }\n\n  function MockTrial() payable public {\n     judge = msg.sender;\n     // Innocent until proven guilty\n     truth = msg.value > 0 ? true : false;\n  }\n\n  function cleanContract() payable public {\n    // TODO: Toggle the truth, I didn't get to building the judge's interface to reset the truth\n    truth = !truth; \n    totalPayout = 0;\n    numDecisions = 0;    \n    entitiesAddrs.length = 0;\n    payoutAddrs.length = 0;\n  }\n\n  // Determine if an entity needs to be added to the jury. \n  // If they are return false otherwise true.\n  function hasJuryDuty(address entity) public view returns(bool) {\n    for(uint i = 0; i < entitiesAddrs.length; i++) { \n      if (entitiesAddrs[i] == entity) return false;\n    }\n    return true;\n  }  \n\n  // Determine which entities voted the same verdict as the current truth\n  // that was decided by the judge when contract was created\n  // Those who had the same will be paid out.\n  function carryOutVerdict(bool isGuilty) public {\n    // TODO: The more an entity risks (bets) they more they get in return\n    // payoutAddrs[j].transfer(entities[payoutAddrs[j]].amountPaid / totalAmountPaid * totalPayout);\n\n    for(uint i = 0; i < entitiesAddrs.length; i++) {\n      address entityAddr = entitiesAddrs[i];\n      if (entities[entityAddr].verdict == isGuilty) {\n        payoutAddrs.push(entityAddr);\n      }\n      // Delete mapping no longer needed\n      delete entities[entityAddr];      \n    }\n\n    uint payoutAmount = totalPayout / payoutAddrs.length;\n    for(uint j = 0; j < payoutAddrs.length; j++) {\n        if (payoutAddrs[j] != address(0)) {\n          payoutAddrs[j].transfer(payoutAmount);\n        }\n    }\n    cleanContract();\n  }   \n\n  // Submit a jury entitiy's decision on guilty or not guilty.\n  function makeDecision(bool isGuilty) public payable {\n    assert(hasJuryDuty(msg.sender));\n    assert(msg.value >= minPayment);\n\n    entities[msg.sender].amountPaid = msg.value;\n    entities[msg.sender].verdict = isGuilty;\n    numDecisions += 1;\n    entitiesAddrs.push(msg.sender);\n    totalPayout += msg.value;\n\n    // If we have reached the max number of allowed entities on\n    // the jury, it's time for judeg to carry out verdict\n    if (numDecisions >= maxEntities) carryOutVerdict(truth);\n  }      \n\n  // Fallback function in case someone sends ether to the contract so it doesn't get lost\n  function() payable public {\n\n  }   \n}",
  "sourcePath": "/Users/machine/workspace/lunchbox/contracts/MockTrial.sol",
  "compiler": {
    "name": "solc",
    "version": "0.4.19+commit.c4cbbb05.Emscripten.clang"
  },
  "schemaVersion": "1.0.1",
  "updatedAt": "2018-02-26T12:34:35.986Z"
}